{
  "_format": "hh-sol-artifact-1",
  "contractName": "GreeterTest",
  "sourceName": "contracts/GreeterTest.sol",
  "abi": [
    {
      "anonymous": false,
      "inputs": [
        {
          "indexed": true,
          "internalType": "address",
          "name": "previousOwner",
          "type": "address"
        },
        {
          "indexed": true,
          "internalType": "address",
          "name": "newOwner",
          "type": "address"
        }
      ],
      "name": "OwnershipTransferred",
      "type": "event"
    },
    {
      "inputs": [],
      "name": "availableGreeting",
      "outputs": [
        {
          "internalType": "bool",
          "name": "",
          "type": "bool"
        }
      ],
      "stateMutability": "view",
      "type": "function"
    },
    {
      "inputs": [],
      "name": "echidna_false",
      "outputs": [
        {
          "internalType": "bool",
          "name": "",
          "type": "bool"
        }
      ],
      "stateMutability": "view",
      "type": "function"
    },
    {
      "inputs": [],
      "name": "greet",
      "outputs": [],
      "stateMutability": "nonpayable",
      "type": "function"
    },
    {
      "inputs": [],
      "name": "owner",
      "outputs": [
        {
          "internalType": "address",
          "name": "",
          "type": "address"
        }
      ],
      "stateMutability": "view",
      "type": "function"
    },
    {
      "inputs": [],
      "name": "renounceOwnership",
      "outputs": [],
      "stateMutability": "nonpayable",
      "type": "function"
    },
    {
      "inputs": [
        {
          "internalType": "address",
          "name": "newOwner",
          "type": "address"
        }
      ],
      "name": "transferOwnership",
      "outputs": [],
      "stateMutability": "nonpayable",
      "type": "function"
    }
  ],
  "bytecode": "0x608060405234801561001057600080fd5b5061002d61002261003260201b60201c565b61003a60201b60201c565b6100fe565b600033905090565b60008060009054906101000a900473ffffffffffffffffffffffffffffffffffffffff169050816000806101000a81548173ffffffffffffffffffffffffffffffffffffffff021916908373ffffffffffffffffffffffffffffffffffffffff1602179055508173ffffffffffffffffffffffffffffffffffffffff168173ffffffffffffffffffffffffffffffffffffffff167f8be0079c531659141344cd1fd0a4f28419497f9722a3daafe3b4186f6b6457e060405160405180910390a35050565b6106648061010d6000396000f3fe608060405234801561001057600080fd5b50600436106100625760003560e01c80633573d90b14610067578063715018a6146100855780638965b7c61461008f5780638da5cb5b146100ad578063cfae3217146100cb578063f2fde38b146100d5575b600080fd5b61006f6100f1565b60405161007c919061044a565b60405180910390f35b61008d610104565b005b61009761018c565b6040516100a4919061044a565b60405180910390f35b6100b56101a9565b6040516100c291906104a6565b60405180910390f35b6100d36101d2565b005b6100ef60048036038101906100ea91906104f2565b61026b565b005b600060149054906101000a900460ff1681565b61010c610363565b73ffffffffffffffffffffffffffffffffffffffff1661012a6101a9565b73ffffffffffffffffffffffffffffffffffffffff1614610180576040517f08c379a00000000000000000000000000000000000000000000000000000000081526004016101779061057c565b60405180910390fd5b61018a600061036b565b565b6000801515600060149054906101000a900460ff16151514905090565b60008060009054906101000a900473ffffffffffffffffffffffffffffffffffffffff16905090565b6101da610363565b73ffffffffffffffffffffffffffffffffffffffff166101f86101a9565b73ffffffffffffffffffffffffffffffffffffffff161461024e576040517f08c379a00000000000000000000000000000000000000000000000000000000081526004016102459061057c565b60405180910390fd5b6001600060146101000a81548160ff021916908315150217905550565b610273610363565b73ffffffffffffffffffffffffffffffffffffffff166102916101a9565b73ffffffffffffffffffffffffffffffffffffffff16146102e7576040517f08c379a00000000000000000000000000000000000000000000000000000000081526004016102de9061057c565b60405180910390fd5b600073ffffffffffffffffffffffffffffffffffffffff168173ffffffffffffffffffffffffffffffffffffffff161415610357576040517f08c379a000000000000000000000000000000000000000000000000000000000815260040161034e9061060e565b60405180910390fd5b6103608161036b565b50565b600033905090565b60008060009054906101000a900473ffffffffffffffffffffffffffffffffffffffff169050816000806101000a81548173ffffffffffffffffffffffffffffffffffffffff021916908373ffffffffffffffffffffffffffffffffffffffff1602179055508173ffffffffffffffffffffffffffffffffffffffff168173ffffffffffffffffffffffffffffffffffffffff167f8be0079c531659141344cd1fd0a4f28419497f9722a3daafe3b4186f6b6457e060405160405180910390a35050565b60008115159050919050565b6104448161042f565b82525050565b600060208201905061045f600083018461043b565b92915050565b600073ffffffffffffffffffffffffffffffffffffffff82169050919050565b600061049082610465565b9050919050565b6104a081610485565b82525050565b60006020820190506104bb6000830184610497565b92915050565b600080fd5b6104cf81610485565b81146104da57600080fd5b50565b6000813590506104ec816104c6565b92915050565b600060208284031215610508576105076104c1565b5b6000610516848285016104dd565b91505092915050565b600082825260208201905092915050565b7f4f776e61626c653a2063616c6c6572206973206e6f7420746865206f776e6572600082015250565b600061056660208361051f565b915061057182610530565b602082019050919050565b6000602082019050818103600083015261059581610559565b9050919050565b7f4f776e61626c653a206e6577206f776e657220697320746865207a65726f206160008201527f6464726573730000000000000000000000000000000000000000000000000000602082015250565b60006105f860268361051f565b91506106038261059c565b604082019050919050565b60006020820190508181036000830152610627816105eb565b905091905056fea26469706673582212201b83a77d69548f1955b57798af86752bc165473c9203946861f0b46d7cd6c28a64736f6c634300080a0033",
  "linkReferences": {},
  "deployedLinkReferences": {}
}